:100000000EC01DC01CC01BC01AC019C018C017C02C
:1000100016C015C014C013C012C011C010C01124E6
:100020001FBECFE5D1E0DEBFCDBF20E0A0E6B0E04F
:1000300001C01D92A636B207E1F702D0CEC2E0CFD2
:100040001F93CF93DF9300D000D000D0CDB7DEB7A1
:10005000198280E88A8380E88B838FE78C8385E030
:100060008D831E82BFD10ED223D2A7D089838981EE
:100070009A81890F8A8385E290E0FC0180818C83DC
:100080009E8181E0992309F080E0882311F08A8124
:100090008B838B81882F90E0092E000CAA0BBB0B61
:1000A000BC01CD0137D2DC01CB0111E02AE037EDF4
:1000B00043E450E4BC01CD0127D288230CF010E0CA
:1000C000112319F083E08B831BC08B81882F90E074
:1000D000092E000CAA0BBB0BBC01CD011BD2DC010D
:1000E000CB0111E024EA30EF4BE753E4BC01CD0132
:1000F00070D218160CF010E0112311F08BEF8B83E7
:100100008B81282F30E08C81882F90E0281B390BC1
:100110008D81882F90E041E0821793070CF040E03A
:10012000442399F088E390E028E330E0F90120814E
:100130002061FC01208388E390E028E330E0F901AE
:100140002081277FFC01208390CF8C81282F30E0F5
:100150008B81882F90E0281B390B8D81882F90E0B0
:1001600041E0821793070CF040E0442399F088E3C4
:1001700090E028E330E0F90120812860FC01208331
:1001800088E390E028E330E0F90120812F7EFC0134
:1001900020836BCF88E390E028E330E0F9012081F1
:1001A000277FFC01208388E390E028E330E0F90119
:1001B00020812F7EFC01208358CFCF93DF93CDB7D2
:1001C000DEB786E390E0FC018081882F90E08170AB
:1001D000992721E0892B09F420E02093610086E330
:1001E00090E0FC018081882F90E08270992721E0C7
:1001F000892B09F420E020936200809163009091A4
:100200006400019690936400809363008091650080
:10021000882309F04FC080916100282F30E0809141
:100220006200882F90E08223932321E0892B09F438
:1002300020E0222349F083E080936500109264005F
:100240001092630080E0B6C080916100282F30E0FA
:1002500080916200882F90E080959095822393236F
:1002600021E0892B09F420E0222349F081E08093EA
:100270006500109264001092630080E09BC0809142
:100280006200282F30E080916100882F90E08095F7
:1002900090958223932321E0892B09F420E02223E7
:1002A00049F082E080936500109264001092630030
:1002B00080E080C08091650031E0813009F030E05D
:1002C000809163009091640021E0CC9708F420E0D5
:1002D000832F82238823A1F080916100882341F03D
:1002E00010926500109264001092630081E062C079
:1002F00010926500109264001092630080E05AC072
:100300008091650031E0823009F030E08091630037
:100310009091640021E0CC9708F420E0832F8223A1
:100320008823A1F080916200882341F0109265003B
:1003300010926400109263008FEF3CC01092650031
:10034000109264001092630080E034C080916500D8
:1003500031E0833009F030E08091630090916400D7
:1003600021E0CC9708F420E0832F8223882309F131
:1003700080916100282F30E080916200882F90E00A
:100380008223932321E0892B09F420E0222349F0E2
:100390001092650010926400109263000ED080E00D
:1003A00009C010926500109264001092630080E012
:1003B00001C080E0DF91CF910895CF93DF93CDB757
:1003C000DEB780916000882331F481E08093600083
:1003D0006FD0789403C010926000F8940000DF9111
:1003E000CF910895CF93DF93CDB7DEB787E390E049
:1003F00027E330E0F90120812E7FFC01208387E391
:1004000090E027E330E0F90120812D7FFC0120837B
:1004100087E390E027E330E0F90120812B7FFC01A6
:10042000208388E390E028E330E0F9012081216017
:10043000FC01208388E390E028E330E0F90120818B
:100440002260FC01208387E390E027E330E0F9019C
:1004500020812061FC01208387E390E027E330E0E6
:10046000F90120812860FC01208387E390E027E3E5
:1004700030E0F90120812062FC0120830000DF913F
:10048000CF910895CF93DF93CDB7DEB787E290E0A9
:1004900021E2FC01208386E290E026EEFC0120832D
:1004A00083E290E0FC0110820000DF91CF9108957B
:1004B000CF93DF93CDB7DEB783E590E023E530E05F
:1004C000F90120812460FC01208383E590E023E58D
:1004D00030E0F90120812160FC01208389E590E072
:1004E00029E530E0F90120812260FC01208388E5C4
:1004F00090E028E530E0F90120812260FC012083B2
:100500000000DF91CF91089540D008F481E0089574
:10051000E89409C097FB3EF490958095709561959D
:100520007F4F8F4F9F4F9923A9F0F92F96E9BB2753
:100530009395F695879577956795B795F111F8CFCF
:10054000FAF4BB0F11F460FF1BC06F5F7F4F8F4F3A
:100550009F4F16C0882311F096E911C0772321F030
:100560009EE8872F762F05C0662371F096E8862FC8
:1005700070E060E02AF09A95660F771F881FDAF71F
:10058000880F9695879597F90895990F0008550F4C
:10059000AA0BE0E8FEEF16161706E807F907C0F009
:1005A00012161306E407F50798F0621B730B840B11
:1005B000950B39F40A2661F0232B242B252B21F4EB
:1005C00008950A2609F4A140A6958FEF811D811D8B
:0E05D0000895DBDF08F48FEF0895F894FFCF55
:00000001FF
