S01400004D6F746F72436F6E74726F6C2E737265631E
S11300000EC028C027C026C025C025C023C022C0DA
S113001021C020C01FC01EC01DC01CC01BC0112495
S11300201FBECFE5D1E0DEBFCDBF11E0A0E6B0E05A
S1130030E6E0F8E002C005900D92A832B107D9F7C6
S113004021E0A8E2B1E001C01D92A533B207E1F7B7
S113005057D0D7C3D5CF1F920F9200905F000F9255
S113006011242F933F934F935F936F937F938F93B9
S11300709F93AF93BF93EF93FF93CF93DF93CDB74A
S1130080DEB780912B0190912C01019690932C0165
S113009080932B0180912B0190912C010F97D8F024
S11300A010922C0110922B018091290190912A0128
S11300B0019690932A0180932901809129019091BE
S11300C02A018136994038F080E699E090932A011C
S11300D08093290122D20000DF91CF91FF91EF910B
S11300E0BF91AF919F918F917F916F915F914F914C
S11300F03F912F910F9000925F000F901F901895E1
S11301001F93CF93DF9300D000D01F92CDB7DEB7FB
S1130110198280E88A8380E88B838FE78C8384E06C
S11301208D8315D264D2E1D089838981082E000C95
S1130130990B2FEF30E0A901481B590BCA0190938A
S11301402E0180932D018981082E000C990B919525
S1130150819591099093300180932F018A81282FF2
S113016030E080912D0190912E0141E08217930798
S11301700CF040E0442319F08FEF8A8314C08A8185
S1130180282F30E080912F019091300141E0281711
S113019039070CF040E0442311F01A8204C099811D
S11301A08A81890F8A8385E290E0FC0180818C83B7
S11301B080912801882319F48A818B8302C085D217
S11301C08B838B81882F90E0092E000CAA0BBB0B2C
S11301D0BC01CD019FD2DC01CB0111E02AE037ED57
S11301E043EC5FE3BC01CD018FD288230CF010E017
S11301F0112319F081E08B831BC08B81882F90E041
S1130200092E000CAA0BBB0BBC01CD0183D2DC016F
S1130210CB0111E021E538E74DE753E4BC01CD0102
S1130220D8D218160CF010E0112311F08DEF8B8347
S11302308B81282F30E08C81882F90E0281B390B8C
S11302408D81882F90E041E0821793070CF040E005
S1130250442399F088E390E028E330E0F901208119
S11302602061FC01208388E390E028E330E0F90179
S11302702081277FFC01208356CF8C81282F30E0FA
S11302808B81882F90E0281B390B8D81882F90E07B
S113029041E0821793070CF040E0442399F088E38F
S11302A090E028E330E0F90120812860FC012083FC
S11302B088E390E028E330E0F90120812F7EFC01FF
S11302C0208331CF88E390E028E330E0F9012081F6
S11302D0277FFC01208388E390E028E330E0F901E4
S11302E020812F7EFC0120831ECFCF93DF93CDB7D7
S11302F0DEB786E390E0FC018081882F90E0827075
S1130300992721E0892B09F020E02093310186E32D
S113031090E0FC018081882F90E08170992721E092
S1130320892B09F020E02093320180913301882346
S113033029F0809134018F5F8093340180913301DF
S11303408430D9F480913101882F90E0019661F0D6
S113035080913201882F90E0019631F08091340130
S1130360843610F081E001C080E0882321F01092EF
S1130370330180E0CFC080E0CDC080913301882379
S113038009F040C080913101882331F0809132011D
S1130390882311F081E001C080E0882339F083E0F4
S11303A0809333011092340180E0B4C08091310114
S11303B0882341F080913201882F90E0019611F05A
S11303C081E001C080E0882339F081E0809333012B
S11303D01092340180E09EC080913201882341F064
S11303E080913101882F90E0019611F081E001C0E5
S11303F080E0882339F082E0809333011092340145
S113040080E088C080913301833071F080913301A2
S1130410843051F080913101882331F08091320190
S1130420882311F081E001C080E0882339F083E063
S1130430809333011092340180E06CC080913301C9
S113044091E0813009F090E02091340181E028327C
S113045008F480E08923882381F080913101882386
S113046031F0109233011092340181E053C01092A4
S113047033011092340180E04DC08091330191E04A
S1130480823009F090E02091340181E0283208F4B0
S113049080E08923882381F080913201882331F020
S11304A010923301109234018FEF34C01092330153
S11304B01092340180E02EC08091330191E08330AA
S11304C009F090E02091340181E0243608F480E0C2
S11304D089238823F1F080913101282F30E0809125
S11304E03201882F90E08223932321E0892B09F4A1
S11304F020E0222351F0109233011092340184E061
S1130500809333010AD080E005C01092340180E06A
S113051001C080E0DF91CF910895CF93DF93CDB7F1
S1130520DEB7F89480912801882351F481E0809308
S1130530280110922A01109229016FD0789403C0E7
S1130540109228018DD00000DF91CF910895CF93B0
S1130550DF93CDB7DEB787E390E027E330E0F9011E
S113056020812D7FFC01208387E390E027E330E0A6
S1130570F90120812E7FFC01208387E390E027E3AB
S113058030E0F90120812B7FFC01208388E390E097
S113059028E330E0F90120812260FC01208388E314
S11305A090E028E330E0F90120812160FC01208300
S11305B087E390E027E330E0F90120812061FC012A
S11305C0208387E390E027E330E0F901208128606D
S11305D0FC01208387E390E027E330E0F9012081E8
S11305E02062FC0120830000DF91CF910895CF9316
S11305F0DF93CDB7DEB787E290E021E2FC012083F0
S113060086E290E026EEFC01208383E290E0FC0188
S113061010820000DF91CF910895CF93DF93CDB77F
S1130620DEB783E590E023E530E0F9012081246022
S1130630FC01208389E590E029E530E0F90120817F
S11306402260FC01208388E590E028E530E0F90190
S113065020812260FC0120830000DF91CF91089566
S1130660CF93DF93CDB7DEB789E590E029E530E09D
S1130670F90120812D7FFC01208388E590E028E5A5
S113068030E0F90120812D7FFC01208383E590E097
S113069023E530E0F90120812B7FFC01208383E5F1
S11306A090E023E530E0F90120812D7FFC012083D7
S11306B083E590E023E530E0F90120812E7FFC0101
S11306C020830000DF91CF910895CF93DF931F9291
S11306D0CDB7DEB78091290190912A012CE030E05A
S11306E0B9017BD0CB0189838981893C40F489811C
S11306F0882F90E0805A9F4FFC01808101C08FE7D2
S11307000F90DF91CF91089540D008F481E00895CF
S1130710E89409C097FB3EF4909580957095619597
S11307207F4F8F4F9F4F9923A9F0F92F96E9BB274D
S11307309395F695879577956795B795F111F8CFC9
S1130740FAF4BB0F11F460FF1BC06F5F7F4F8F4F34
S11307509F4F16C0882311F096E911C0772321F02A
S11307609EE8872F762F05C0662371F096E8862FC2
S113077070E060E02AF09A95660F771F881FDAF719
S1130780880F9695879597F90895990F0008550F46
S1130790AA0BE0E8FEEF16161706E807F907C0F003
S11307A012161306E407F50798F0621B730B840B0B
S11307B0950B39F40A2661F0232B242B252B21F4E5
S11307C008950A2609F4A140A6958FEF811D811D85
S11307D00895DBDF08F48FEF0895AA1BBB1B51E1DA
S11307E007C0AA1FBB1FA617B70710F0A61BB70B9D
S11307F0881F991F5A95A9F780959095BC01CD0142
S10908000895F894FFCFF7
S1130806FF00FFE7E1DFDEDDDCDAD9D8D6D5D4D3C5
S1130816D1D0CFCDC4AAA6A19D9995918D89868361
S1130826807E7C7E818284868788898A8A8B8B8B6C
S11308368B8A89898786858481807E7B7A7775729F
S1130846706D6A645E554B3F71A2A6A9ACB0B3B78E
S1130856BABEC1C4C7CBCED1D4D7DADDE0E2E5E770
S1130866EAECEEF0F2F3F4F6F7F8F9FAFAFBFBFB2E
S1130876FAFAF9F8F7F6F4F2F1EEECE9E7E4E1DD79
S1130886DBD7D3CECAC6C2BDB8B3AEA8A29D9792D3
S11308968C868079746E67615B554F49433D373169
S11308A62D27221D1914100C0A060302000000004D
S11308B600000104060B0F151D293A4F6585A6BED7
S10B08C6CDD6DCE3E9EFF6FAFC
S9030000FC
