S01700004763634170706C69636174696F6E312E737265635B
S11300000EC01DC01CC01BC01AC019C018C017C028
S113001016C015C014C013C012C011C010C01124E2
S11300201FBECFE5D1E0DEBFCDBF20E0A0E6B0E04B
S113003001C01D92A536B207E1F78ED047C1E0CFCB
S113004086B381708093640086B3869581708093B3
S11300506300809161009091620001969093620028
S1130060809361002091640030916300222331F079
S1130070332321F01092600080E008952091600005
S113008021111BC080916400882349F081E0809392
S11300906000109262001092610080E008958091E7
S11300A06300882309F445C082E0809360001092C5
S11300B062001092610080E0089531E0892B09F418
S11300C030E081E0213009F080E08823B1F033236F
S11300D0A1F080916400882341F010926000109296
S11300E062001092610081E0089510926000109205
S11300F062001092610080E0089581E0223009F0EE
S113010080E08823C1F03323B1F080916300882319
S113011041F01092600010926200109261008FEF23
S1130120089510926000109262001092610080E0C5
S1130130089580E0089580E00895B898B998BA9831
S1130140C098C198BB9ABC9ABD9A089581E287B9B8
S113015086EE86B913B80895CF93DF9300D000D00C
S1130160CDB7DEB7198280E88A838FE78B8385E079
S11301708C83E3DFEBDF04EF19E162DF898399818C
S11301808A81890F8A836A8170E080E090E03BD0A5
S113019020E030E04CEC51E430D0882314F41A838E
S11301A00DC06A8170E080E090E02DD02DEC3CEC35
S11301B044E753E487D018160CF40A8385B18B8383
S11301C08A813B812C8190E0831B910930E02817C0
S11301D039071CF4C39AC498D0CF8B813A812C81FF
S11301E090E0831B910930E0281739071CF4C49A66
S11301F0C398C3CFC498C398C0CF40D008F481E05B
S11302000895E89409C097FB3EF490958095709505
S113021061957F4F8F4F9F4F9923A9F0F92F96E94E
S1130220BB279395F695879577956795B795F111C3
S1130230F8CFFAF4BB0F11F460FF1BC06F5F7F4F60
S11302408F4F9F4F16C0882311F096E911C0772372
S113025021F09EE8872F762F05C0662371F096E87B
S1130260862F70E060E02AF09A95660F771F881F4A
S1130270DAF7880F9695879597F90895990F0008EE
S1130280550FAA0BE0E8FEEF16161706E807F90764
S1130290C0F012161306E407F50798F0621B730BFF
S11302A0840B950B39F40A2661F0232B242B252B80
S11302B021F408950A2609F4A140A6958FEF811D23
S11302C0811D0895DBDF08F48FEF0895F894FFCFC4
S9030000FC
