S01400004D6F746F72436F6E74726F6C2E737265631E
S11300000EC01DC01CC01BC01AC019C018C017C028
S113001016C015C014C013C012C011C010C01124E2
S11300201FBECFE5D1E0DEBFCDBF20E0A0E6B0E04B
S113003001C01D92A536B207E1F702D02AC2E0CF73
S11300401F93CF93DF9300D000D0CDB7DEB71982D2
S113005080E88A838FE78B8385E08C834BD19AD1A8
S11300609ED0898399818A81890F8A838A81882F86
S113007090E0092E000CAA0BBB0BBC01CD01A6D14C
S1130080DC01CB0111E023E333E343E250E4BC01A0
S1130090CD0196D188230CF010E0112319F082E0F1
S11300A08A831BC08A81882F90E0092E000CAA0B3A
S11300B0BB0BBC01CD018AD1DC01CB0111E022E3F1
S11300C033E74CE753E4BC01CD01DFD118160CF043
S11300D010E0112311F08CEF8A8385E290E0FC019B
S11300E080818B838A81282F30E08B81882F90E058
S11300F0281B390B8C81882F90E041E082179307ED
S11301000CF040E0442399F088E390E028E330E0E9
S1130110F90120812061FC01208388E390E028E339
S113012030E0F9012081277FFC01208399CF8B8166
S1130130282F30E08A81882F90E0281B390B8C818E
S1130140882F90E041E0821793070CF040E04423AD
S113015099F088E390E028E330E0F90120812860F9
S1130160FC01208388E390E028E330E0F90120815A
S11301702F7EFC01208374CF88E390E028E330E0F5
S1130180F9012081277FFC01208388E390E028E3A4
S113019030E0F90120812F7EFC01208361CFCF93D1
S11301A0DF93CDB7DEB786E390E0FC018081882F32
S11301B090E08170992721E0892B09F420E02093B5
S11301C0600086E390E0FC018081882F90E08270DB
S11301D0992721E0892B09F420E020936100809184
S11301E06200909163000196909363008093620093
S11301F080916000282F30E080916100882F90E08A
S11302008223932321E0892B09F420E0222321F087
S11302101092640080E06BC0809164008823D1F464
S113022080916000882349F081E0809364001092FB
S113023063001092620080E05AC0809161008823BC
S113024049F082E08093640010926300109262008F
S113025080E04DC08091640031E0813009F030E0ED
S1130260809162009091630021E0CC9708F420E033
S1130270832F82238823A1F080916000882341F09A
S113028010926400109263001092620081E02FC00B
S113029010926400109263001092620080E027C004
S11302A08091640031E0823009F030E08091620096
S11302B09091630021E0CC9708F420E0832F8223FF
S11302C08823A1F080916100882341F0109264009A
S11302D010926300109262008FEF09C010926400C4
S11302E0109263001092620080E001C080E0DF9110
S11302F0CF910895CF93DF93CDB7DEB787E390E036
S113030027E330E0F90120812E7FFC01208387E37D
S113031090E027E330E0F90120812D7FFC01208368
S113032087E390E027E330E0F90120812B7FFC0193
S1130330208388E390E028E330E0F9012081216004
S1130340FC01208388E390E028E330E0F901208178
S11303502260FC01208387E390E027E330E0F90189
S113036020812061FC01208387E390E027E330E0D3
S1130370F90120812860FC01208387E390E027E3D2
S113038030E0F90120812062FC0120830000DF912C
S1130390CF910895CF93DF93CDB7DEB787E290E096
S11303A021E2FC01208386E290E026EEFC0120831A
S11303B083E290E0FC0110820000DF91CF91089568
S11303C040D008F481E00895E89409C097FB3EF416
S11303D090958095709561957F4F8F4F9F4F99238E
S11303E0A9F0F92F96E9BB279395F695879577950C
S11303F06795B795F111F8CFFAF4BB0F11F460FFCC
S11304001BC06F5F7F4F8F4F9F4F16C0882311F023
S113041096E911C0772321F09EE8872F762F05C037
S1130420662371F096E8862F70E060E02AF09A95D2
S1130430660F771F881FDAF7880F9695879597F9C7
S11304400895990F0008550FAA0BE0E8FEEF161661
S11304501706E807F907C0F012161306E407F507B4
S113046098F0621B730B840B950B39F40A2661F028
S1130470232B242B252B21F408950A2609F4A140CB
S1130480A6958FEF811D811D0895DBDF08F48FEFA2
S10904900895F894FFCF6B
S9030000FC
