S01400004D6F746F72436F6E74726F6C2E737265631E
S11300000EC028C027C026C025C025C023C022C0DA
S113001021C020C01FC01EC01DC01CC01BC0112495
S11300201FBECFE5D1E0DEBFCDBF11E0A0E6B0E05A
S1130030EEEDF6E002C005900D92A832B107D9F7B3
S113004021E0A8E2B1E001C01D92A133B207E1F7BB
S113005058D043C3D5CF1F920F9200905F000F92E8
S113006011242F933F934F935F936F937F938F93B9
S11300709F93AF93BF93EF93FF93CF93DF93CDB74A
S1130080DEB780912B0190912C01019690932C0165
S113009080932B0180912B0190912C01883C910538
S11300A0D8F010922C0110922B018091290190918B
S11300B02A01019690932A018093290180912901B4
S11300C090912A018136994038F080E699E0909326
S11300D02A0180932901BDD10000DF91CF91FF91C6
S11300E0EF91BF91AF919F918F917F916F915F91AC
S11300F04F913F912F910F9000925F000F901F90AE
S113010018951F93CF93DF9300D000D01F92CDB7E3
S1130110DEB7198280E88A8380E88B838FE78C833B
S113012086E08D83AED1FDD112D2AED08983998180
S11301308A81890F8A8385E290E0FC0180818C8327
S113014080912801882319F48A818B8309C08091C6
S1130150290190912A0127D2982F8981890F8B83B5
S11301608B81882F90E0092E000CAA0BBB0BBC01DD
S1130170CD013CD2DC01CB0111E02AE037ED43E4B0
S113018050E4BC01CD012CD288230CF010E01123E3
S113019019F083E08B831BC08B81882F90E0092E9C
S11301A0000CAA0BBB0BBC01CD0120D2DC01CB019E
S11301B011E024EA30EF4BE753E4BC01CD0175D2E2
S11301C018160CF010E0112311F08BEF8B838B8148
S11301D0282F30E08C81882F90E0281B390B8D81EB
S11301E0882F90E041E0821793070CF040E044230D
S11301F099F088E390E028E330E0F9012081206160
S1130200FC01208388E390E028E330E0F9012081B9
S1130210277FFC01208389CF8C81282F30E08B81BC
S1130220882F90E0281B390B8D81882F90E041E0C6
S1130230821793070CF040E0442399F088E390E0A0
S113024028E330E0F90120812860FC01208388E361
S113025090E028E330E0F90120812F7EFC01208327
S113026064CF88E390E028E330E0F9012081277F20
S1130270FC01208388E390E028E330E0F901208149
S11302802F7EFC01208351CFCF93DF93CDB7DEB710
S113029086E390E0FC018081882F90E082709927AA
S11302A021E0892B09F020E020932D0186E390E0E2
S11302B0FC018081882F90E08170992721E0892BAF
S11302C009F020E020932E0180912F01882329F04A
S11302D0809130018F5F8093300180912F018823BA
S11302E009F049C080912D01282F30E080912E0122
S11302F0882F90E08223932321E0892B09F420E0C6
S1130300222339F083E080932F011092300180E0A2
S11303109DC080912D01282F30E080912E01882FDF
S113032090E0809590958223932321E0892B09F412
S113033020E0222339F081E080932F0110923001D4
S113034080E084C080912E01282F30E080912D011F
S1130350882F90E0809590958223932321E0892B28
S113036009F420E0222339F082E080932F011092D7
S1130370300180E06BC080912F0191E0813009F061
S113038090E02091300181E02E3108F480E089234F
S1130390882381F080912D01882331F010922F0160
S11303A01092300181E052C010922F01109230015E
S11303B080E04CC080912F0191E0823009F090E000
S11303C02091300181E02E3108F480E089238823D4
S11303D081F080912E01882331F010922F01109228
S11303E030018FEF33C010922F011092300180E062
S11303F02DC080912F0191E0833009F090E020918D
S1130400300181E0283C08F480E089238823E9F066
S113041080912D01282F30E080912E01882F90E0CB
S11304208223932321E0892B09F420E0222339F04D
S113043010922F01109230010CD080E007C010926E
S11304402F011092300180E001C080E0DF91CF9154
S11304500895CF93DF93CDB7DEB780912801882329
S113046049F481E08093280110922A011092290115
S1130470789403C010922801F8940000DF91CF9182
S11304800895CF93DF93CDB7DEB787E390E027E3FA
S113049030E0F90120812D7FFC01208387E390E087
S11304A027E330E0F90120812E7FFC01208387E3DC
S11304B090E027E330E0F90120812B7FFC012083C9
S11304C088E390E028E330E0F90120812260FC0118
S11304D0208388E390E028E330E0F9012081216063
S11304E0FC01208387E390E027E330E0F9012081D9
S11304F02061FC01208387E390E027E330E0F901E9
S113050020812860FC01208387E390E027E330E02A
S1130510F90120812062FC0120830000DF91CF914A
S11305200895CF93DF93CDB7DEB787E290E021E261
S1130530FC01208386E290E026EEFC01208383E226
S113054090E0FC0110820000DF91CF910895CF93D9
S1130550DF93CDB7DEB783E590E023E530E0F90122
S113056020812460FC01208383E590E023E530E0D2
S1130570F90120812160FC01208389E590E029E5CF
S113058030E0F90120812260FC01208388E590E0BD
S113059028E530E0F90120812260FC01208300007D
S11305A0DF91CF910895CF93DF9300D01F92CDB701
S11305B0DEB79B838A838A819B812CE030E0B9017A
S11305C078D0CB0189838981882F90E0805A9F4F0E
S11305D0FC0180810F900F900F90DF91CF910895CF
S11305E040D008F481E00895E89409C097FB3EF4F4
S11305F090958095709561957F4F8F4F9F4F99236C
S1130600A9F0F92F96E9BB279395F69587957795E9
S11306106795B795F111F8CFFAF4BB0F11F460FFA9
S11306201BC06F5F7F4F8F4F9F4F16C0882311F001
S113063096E911C0772321F09EE8872F762F05C015
S1130640662371F096E8862F70E060E02AF09A95B0
S1130650660F771F881FDAF7880F9695879597F9A5
S11306600895990F0008550FAA0BE0E8FEEF16163F
S11306701706E807F907C0F012161306E407F50792
S113068098F0621B730B840B950B39F40A2661F006
S1130690232B242B252B21F408950A2609F4A140A9
S11306A0A6958FEF811D811D0895DBDF08F48FEF80
S11306B00895AA1BBB1B51E107C0AA1FBB1FA617A5
S11306C0B70710F0A61BB70B881F991F5A95A9F7F7
S11106D080959095BC01CD010895F894FFCF5C
S11306DE030A10171D1F20212224252628292A2B20
S11306EE2D2E2F313A54585D6165696D7175787B85
S11306FE7E8082807D7C7A78777675757474747456
S113070E747575767778797A7D7E80838487898C03
S113071E8E91949AA0A9B3BF8D5C5855524E4B47F7
S113072E44403D3A3733302D2A2724211E1C1917F5
S113073E1412100E0C0B0A08070606050404040412
S113074E0405060607080A0C0D101215171A1D21AA
S113075E23272B3034383C41464B50565C61676C32
S113076E72787E858A90979DA3A9AFB5BBC1C7CD7C
S113077ED1D7DCE1E5EAEEF2F4F8FBFCFEFFFFFF75
S113078EFFFEFDFAF8F3EFE9E1D5C4AF99795840CD
S10B079E3128221B150F080588
S9030000FC
