:100000000EC01DC01CC01BC01AC019C018C017C02C
:1000100016C015C014C013C012C011C010C01124E6
:100020001FBECFE5D1E0DEBFCDBF20E0A0E6B0E04F
:1000300001C01D92A536B207E1F76ED031C1E0CF05
:1000400086B381708093640086B3869581708093B7
:10005000630080916100909162000196909362002C
:10006000809361003091640020916300332329F074
:10007000222319F0109260003EC0309160003111CF
:100080000EC020916400222311F081E005C0209170
:100090006300222321F082E08093600017C021E0FA
:1000A0008A3F910508F420E03130A9F4222319F1A8
:1000B00080916400882341F01092600010926200E9
:1000C0001092610081E00895109260001092620029
:1000D0001092610010C0323071F4222361F08091DF
:1000E0006300882389F310926000109262001092DE
:1000F00061008FEF089580E00895B898B998BA9894
:10010000C09AC19ABB9ABC9ABD9A089581E287B9F8
:1001100086EE86B913B80895CF93DF9300D000D050
:10012000CDB7DEB71C8280E88B838FE78A838EE1B0
:100130008983E3DFEBDF14EF09E182DF65E0A7D01D
:100140008C839C818B81890F8B836B8170E080E035
:1001500090E03AD020E030E04CEC51E42FD087FF23
:1001600002C00B830DC06B8170E080E090E02CD06A
:100170002DEC3CEC44E753E486D018160CF41B83BA
:1001800085B18A838B813A81298190E0831B910913
:1001900030E0281739071CF4C39AC498CECF8A815F
:1001A0003B81298190E0831B910930E028173907B2
:1001B00014F4C49A01C0C498C398BFCF40D008F4C7
:1001C00081E00895E89409C097FB3EF490958095EE
:1001D000709561957F4F8F4F9F4F9923A9F0F92F0D
:1001E00096E9BB279395F695879577956795B7958B
:1001F000F111F8CFFAF4BB0F11F460FF1BC06F5F71
:100200007F4F8F4F9F4F16C0882311F096E911C082
:10021000772321F09EE8872F762F05C0662371F0A3
:1002200096E8862F70E060E02AF09A95660F771FB7
:10023000881FDAF7880F9695879597F90895990F93
:100240000008550FAA0BE0E8FEEF16161706E807A0
:10025000F907C0F012161306E407F50798F0621BC1
:10026000730B840B950B39F40A2661F0232B242B96
:10027000252B21F408950A2609F4A140A6958FEFB5
:10028000811D811D0895DBDF08F48FEF08950024A0
:1002900080FD060E660F11F08695D1F7802D08952A
:0402A000F894FFCF00
:00000001FF
